{
  "contractName": "Voter",
  "abi": [
    {
      "constant": false,
      "inputs": [
        {
          "internalType": "string",
          "name": "votingName",
          "type": "string"
        },
        {
          "internalType": "string",
          "name": "question",
          "type": "string"
        },
        {
          "internalType": "string[]",
          "name": "options",
          "type": "string[]"
        },
        {
          "internalType": "address[]",
          "name": "voters",
          "type": "address[]"
        }
      ],
      "name": "createVoting",
      "outputs": [],
      "payable": false,
      "stateMutability": "nonpayable",
      "type": "function"
    },
    {
      "constant": false,
      "inputs": [
        {
          "internalType": "string",
          "name": "votingName",
          "type": "string"
        }
      ],
      "name": "startVoting",
      "outputs": [],
      "payable": false,
      "stateMutability": "nonpayable",
      "type": "function"
    },
    {
      "constant": false,
      "inputs": [
        {
          "internalType": "string",
          "name": "votingName",
          "type": "string"
        },
        {
          "internalType": "string",
          "name": "option",
          "type": "string"
        }
      ],
      "name": "vote",
      "outputs": [],
      "payable": false,
      "stateMutability": "nonpayable",
      "type": "function"
    },
    {
      "constant": false,
      "inputs": [
        {
          "internalType": "string",
          "name": "votingName",
          "type": "string"
        }
      ],
      "name": "endVoting",
      "outputs": [],
      "payable": false,
      "stateMutability": "nonpayable",
      "type": "function"
    },
    {
      "constant": true,
      "inputs": [
        {
          "internalType": "string",
          "name": "votingName",
          "type": "string"
        }
      ],
      "name": "getVotes",
      "outputs": [
        {
          "internalType": "uint256[]",
          "name": "",
          "type": "uint256[]"
        }
      ],
      "payable": false,
      "stateMutability": "view",
      "type": "function"
    },
    {
      "constant": true,
      "inputs": [
        {
          "internalType": "string",
          "name": "votingName",
          "type": "string"
        }
      ],
      "name": "getVoting",
      "outputs": [
        {
          "internalType": "string[]",
          "name": "",
          "type": "string[]"
        }
      ],
      "payable": false,
      "stateMutability": "view",
      "type": "function"
    }
  ],
  "bytecode": "0x608060405234801561001057600080fd5b50611f11806100206000396000f3fe608060405234801561001057600080fd5b50600436106100625760003560e01c80633b00a3e31461006757806372d53d6e14610083578063805265e51461009f5780639ce8b68d146100cf578063e8d5940d146100eb578063f8722b4714610107575b600080fd5b610081600480360361007c91908101906114e1565b610137565b005b61009d600480360361009891908101906114e1565b6102ae565b005b6100b960048036036100b491908101906114e1565b6103d4565b6040516100c69190611b3c565b60405180910390f35b6100e960048036036100e4919081019061158e565b6104bb565b005b61010560048036036101009190810190611522565b61088e565b005b610121600480360361011c91908101906114e1565b610c08565b60405161012e9190611b1a565b60405180910390f35b600080826040516101489190611b03565b908152602001604051809103902090508060000160009054906101000a900460ff166101a9576040517f08c379a00000000000000000000000000000000000000000000000000000000081526004016101a090611b7e565b60405180910390fd5b8060000160029054906101000a900460ff16156101fb576040517f08c379a00000000000000000000000000000000000000000000000000000000081526004016101f290611c7e565b60405180910390fd5b3373ffffffffffffffffffffffffffffffffffffffff168160020160009054906101000a900473ffffffffffffffffffffffffffffffffffffffff1673ffffffffffffffffffffffffffffffffffffffff161461028d576040517f08c379a000000000000000000000000000000000000000000000000000000000815260040161028490611bfe565b60405180910390fd5b60018160000160026101000a81548160ff0219169083151502179055505050565b600080826040516102bf9190611b03565b908152602001604051809103902090503373ffffffffffffffffffffffffffffffffffffffff168160020160009054906101000a900473ffffffffffffffffffffffffffffffffffffffff1673ffffffffffffffffffffffffffffffffffffffff1614610361576040517f08c379a000000000000000000000000000000000000000000000000000000000815260040161035890611c3e565b60405180910390fd5b8060000160019054906101000a900460ff16156103b3576040517f08c379a00000000000000000000000000000000000000000000000000000000081526004016103aa90611c1e565b60405180910390fd5b60018160000160016101000a81548160ff0219169083151502179055505050565b60606000826040516103e69190611b03565b908152602001604051809103902060000160009054906101000a900460ff16610444576040517f08c379a000000000000000000000000000000000000000000000000000000000815260040161043b90611b7e565b60405180910390fd5b6000826040516104549190611b03565b90815260200160405180910390206003018054806020026020016040519081016040528092919081815260200182805480156104af57602002820191906000526020600020905b81548152602001906001019080831161049b575b50505050509050919050565b600080856040516104cc9190611b03565b908152602001604051809103902060000160009054906101000a900460ff169050801561052e576040517f08c379a000000000000000000000000000000000000000000000000000000000815260040161052590611bbe565b60405180910390fd5b610536610ff4565b806000876040516105479190611b03565b908152602001604051809103902060008201518160000160006101000a81548160ff02191690831515021790555060208201518160000160016101000a81548160ff02191690831515021790555060408201518160000160026101000a81548160ff02191690831515021790555060608201518160010190805190602001906105d192919061104d565b5060808201518160020160006101000a81548173ffffffffffffffffffffffffffffffffffffffff021916908373ffffffffffffffffffffffffffffffffffffffff16021790555060a08201518160030190805190602001906106359291906110cd565b5060c082015181600401908051906020019061065292919061111a565b50905050600080876040516106679190611b03565b9081526020016040518091039020905060018160000160006101000a81548160ff021916908315150217905550848160040190805190602001906106ac92919061117a565b50858160010190805190602001906106c59291906111da565b5060008090505b84518110156107a0576106dd61125a565b60405180604001604052806001151581526020016000151581525090508083600501600088858151811061070d57fe5b602002602001015173ffffffffffffffffffffffffffffffffffffffff1673ffffffffffffffffffffffffffffffffffffffff16815260200190815260200160002060008201518160000160006101000a81548160ff02191690831515021790555060208201518160000160016101000a81548160ff0219169083151502179055509050505080806001019150506106cc565b5060008090505b8551811015610841576107b8611278565b604051806040016040528083815260200160011515815250905080836006018884815181106107e357fe5b60200260200101516040516107f89190611aec565b90815260200160405180910390206000820151816000015560208201518160010160006101000a81548160ff0219169083151502179055509050505080806001019150506107a7565b50338160020160006101000a81548173ffffffffffffffffffffffffffffffffffffffff021916908373ffffffffffffffffffffffffffffffffffffffff16021790555050505050505050565b6000808360405161089f9190611b03565b908152602001604051809103902090508060000160009054906101000a900460ff16610900576040517f08c379a00000000000000000000000000000000000000000000000000000000081526004016108f790611b7e565b60405180910390fd5b8060000160019054906101000a900460ff16610951576040517f08c379a000000000000000000000000000000000000000000000000000000000815260040161094890611b9e565b60405180910390fd5b8060000160029054906101000a900460ff16156109a3576040517f08c379a000000000000000000000000000000000000000000000000000000000815260040161099a90611c7e565b60405180910390fd5b8060050160003373ffffffffffffffffffffffffffffffffffffffff1673ffffffffffffffffffffffffffffffffffffffff16815260200190815260200160002060000160009054906101000a900460ff16610a34576040517f08c379a0000000000000000000000000000000000000000000000000000000008152600401610a2b90611bde565b60405180910390fd5b8060050160003373ffffffffffffffffffffffffffffffffffffffff1673ffffffffffffffffffffffffffffffffffffffff16815260200190815260200160002060000160019054906101000a900460ff16610ac5576040517f08c379a0000000000000000000000000000000000000000000000000000000008152600401610abc90611b5e565b60405180910390fd5b610acd611278565b8160060183604051610adf9190611b03565b9081526020016040518091039020604051806040016040529081600082015481526020016001820160009054906101000a900460ff16151515158152505090508060200151610b63576040517f08c379a0000000000000000000000000000000000000000000000000000000008152600401610b5a90611c5e565b60405180910390fd5b600182600301826000015181548110610b7857fe5b90600052602060002001540182600301826000015181548110610b9757fe5b906000526020600020018190555060018260050160003373ffffffffffffffffffffffffffffffffffffffff1673ffffffffffffffffffffffffffffffffffffffff16815260200190815260200160002060000160016101000a81548160ff02191690831515021790555050505050565b6060600082604051610c1a9190611b03565b908152602001604051809103902060000160009054906101000a900460ff16610c78576040517f08c379a0000000000000000000000000000000000000000000000000000000008152600401610c6f90611b7e565b60405180910390fd5b610c80610ff4565b600083604051610c909190611b03565b90815260200160405180910390206040518060e00160405290816000820160009054906101000a900460ff161515151581526020016000820160019054906101000a900460ff161515151581526020016000820160029054906101000a900460ff16151515158152602001600182018054600181600116156101000203166002900480601f016020809104026020016040519081016040528092919081815260200182805460018160011615610100020316600290048015610d935780601f10610d6857610100808354040283529160200191610d93565b820191906000526020600020905b815481529060010190602001808311610d7657829003601f168201915b505050505081526020016002820160009054906101000a900473ffffffffffffffffffffffffffffffffffffffff1673ffffffffffffffffffffffffffffffffffffffff1673ffffffffffffffffffffffffffffffffffffffff16815260200160038201805480602002602001604051908101604052809291908181526020018280548015610e4157602002820191906000526020600020905b815481526020019060010190808311610e2d575b5050505050815260200160048201805480602002602001604051908101604052809291908181526020016000905b82821015610f2b578382906000526020600020018054600181600116156101000203166002900480601f016020809104026020016040519081016040528092919081815260200182805460018160011615610100020316600290048015610f175780601f10610eec57610100808354040283529160200191610f17565b820191906000526020600020905b815481529060010190602001808311610efa57829003601f168201915b505050505081526020019060010190610e6f565b50505050815250509050606060018260c001515101604051908082528060200260200182016040528015610f7357816020015b6060815260200190600190039081610f5e5790505b509050816060015181600081518110610f8857fe5b60200260200101819052506000600190505b60018360c001515101811015610fe9578260c001516001820381518110610fbd57fe5b6020026020010151828281518110610fd157fe5b60200260200101819052508080600101915050610f9a565b508092505050919050565b6040518060e0016040528060001515815260200160001515815260200160001515815260200160608152602001600073ffffffffffffffffffffffffffffffffffffffff16815260200160608152602001606081525090565b828054600181600116156101000203166002900490600052602060002090601f016020900481019282601f1061108e57805160ff19168380011785556110bc565b828001600101855582156110bc579182015b828111156110bb5782518255916020019190600101906110a0565b5b5090506110c99190611294565b5090565b828054828255906000526020600020908101928215611109579160200282015b828111156111085782518255916020019190600101906110ed565b5b5090506111169190611294565b5090565b828054828255906000526020600020908101928215611169579160200282015b8281111561116857825182908051906020019061115892919061104d565b509160200191906001019061113a565b5b50905061117691906112b9565b5090565b8280548282559060005260206000209081019282156111c9579160200282015b828111156111c85782518290805190602001906111b892919061104d565b509160200191906001019061119a565b5b5090506111d691906112b9565b5090565b828054600181600116156101000203166002900490600052602060002090601f016020900481019282601f1061121b57805160ff1916838001178555611249565b82800160010185558215611249579182015b8281111561124857825182559160200191906001019061122d565b5b5090506112569190611294565b5090565b60405180604001604052806000151581526020016000151581525090565b6040518060400160405280600081526020016000151581525090565b6112b691905b808211156112b257600081600090555060010161129a565b5090565b90565b6112e291905b808211156112de57600081816112d591906112e5565b506001016112bf565b5090565b90565b50805460018160011615610100020316600290046000825580601f1061130b575061132a565b601f0160209004906000526020600020908101906113299190611294565b5b50565b60008135905061133c81611eb7565b92915050565b600082601f83011261135357600080fd5b813561136661136182611ccb565b611c9e565b9150818183526020840193506020810190508385602084028201111561138b57600080fd5b60005b838110156113bb57816113a1888261132d565b84526020840193506020830192505060018101905061138e565b5050505092915050565b600082601f8301126113d657600080fd5b81356113e96113e482611cf3565b611c9e565b9150818183526020840193506020810190508360005b8381101561142f57813586016114158882611439565b8452602084019350602083019250506001810190506113ff565b5050505092915050565b600082601f83011261144a57600080fd5b813561145d61145882611d1b565b611c9e565b9150808252602083016020830185838301111561147957600080fd5b611484838284611e64565b50505092915050565b600082601f83011261149e57600080fd5b81356114b16114ac82611d47565b611c9e565b915080825260208301602083018583830111156114cd57600080fd5b6114d8838284611e64565b50505092915050565b6000602082840312156114f357600080fd5b600082013567ffffffffffffffff81111561150d57600080fd5b6115198482850161148d565b91505092915050565b6000806040838503121561153557600080fd5b600083013567ffffffffffffffff81111561154f57600080fd5b61155b8582860161148d565b925050602083013567ffffffffffffffff81111561157857600080fd5b6115848582860161148d565b9150509250929050565b600080600080608085870312156115a457600080fd5b600085013567ffffffffffffffff8111156115be57600080fd5b6115ca8782880161148d565b945050602085013567ffffffffffffffff8111156115e757600080fd5b6115f38782880161148d565b935050604085013567ffffffffffffffff81111561161057600080fd5b61161c878288016113c5565b925050606085013567ffffffffffffffff81111561163957600080fd5b61164587828801611342565b91505092959194509250565b600061165d8383611781565b905092915050565b60006116718383611add565b60208301905092915050565b600061168882611d93565b6116928185611dd9565b9350836020820285016116a485611d73565b8060005b858110156116e057848403895281516116c18582611651565b94506116cc83611dbf565b925060208a019950506001810190506116a8565b50829750879550505050505092915050565b60006116fd82611d9e565b6117078185611dea565b935061171283611d83565b8060005b8381101561174357815161172a8882611665565b975061173583611dcc565b925050600181019050611716565b5085935050505092915050565b600061175b82611db4565b6117658185611e1d565b9350611775818560208601611e73565b80840191505092915050565b600061178c82611da9565b6117968185611dfb565b93506117a6818560208601611e73565b6117af81611ea6565b840191505092915050565b60006117c582611da9565b6117cf8185611e1d565b93506117df818560208601611e73565b80840191505092915050565b60006117f8601883611e0c565b91507f43616c6c65722068617320616c726561647920766f74656400000000000000006000830152602082019050919050565b6000611838601583611e0c565b91507f566f74696e6720646f6573206e6f7420657869737400000000000000000000006000830152602082019050919050565b6000611878601a83611e0c565b91507f566f74696e6720686173206e6f742073746172746564207965740000000000006000830152602082019050919050565b60006118b8602283611e0c565b91507f566f74696e67206f662074686973206e616d6520616c7265616479206578697360008301527f74730000000000000000000000000000000000000000000000000000000000006020830152604082019050919050565b600061191e601a83611e0c565b91507f43616c6c6572206e6f7420616c6c6f77656420746f20766f74650000000000006000830152602082019050919050565b600061195e602883611e0c565b91507f4f6e6c792074686520766f74696e67206f776e65722063616e20656e6420746860008301527f6520766f74696e670000000000000000000000000000000000000000000000006020830152604082019050919050565b60006119c4601a83611e0c565b91507f566f74696e672068617320616c726561647920737461727465640000000000006000830152602082019050919050565b6000611a04602a83611e0c565b91507f4f6e6c792074686520766f74696e67206f776e65722063616e2073746172742060008301527f74686520766f74696e67000000000000000000000000000000000000000000006020830152604082019050919050565b6000611a6a601583611e0c565b91507f4f7074696f6e20646f6573206e6f7420657869737400000000000000000000006000830152602082019050919050565b6000611aaa601883611e0c565b91507f566f74696e672068617320616c726561647920656e64656400000000000000006000830152602082019050919050565b611ae681611e5a565b82525050565b6000611af882846117ba565b915081905092915050565b6000611b0f8284611750565b915081905092915050565b60006020820190508181036000830152611b34818461167d565b905092915050565b60006020820190508181036000830152611b5681846116f2565b905092915050565b60006020820190508181036000830152611b77816117eb565b9050919050565b60006020820190508181036000830152611b978161182b565b9050919050565b60006020820190508181036000830152611bb78161186b565b9050919050565b60006020820190508181036000830152611bd7816118ab565b9050919050565b60006020820190508181036000830152611bf781611911565b9050919050565b60006020820190508181036000830152611c1781611951565b9050919050565b60006020820190508181036000830152611c37816119b7565b9050919050565b60006020820190508181036000830152611c57816119f7565b9050919050565b60006020820190508181036000830152611c7781611a5d565b9050919050565b60006020820190508181036000830152611c9781611a9d565b9050919050565b6000604051905081810181811067ffffffffffffffff82111715611cc157600080fd5b8060405250919050565b600067ffffffffffffffff821115611ce257600080fd5b602082029050602081019050919050565b600067ffffffffffffffff821115611d0a57600080fd5b602082029050602081019050919050565b600067ffffffffffffffff821115611d3257600080fd5b601f19601f8301169050602081019050919050565b600067ffffffffffffffff821115611d5e57600080fd5b601f19601f8301169050602081019050919050565b6000819050602082019050919050565b6000819050602082019050919050565b600081519050919050565b600081519050919050565b600081519050919050565b600081519050919050565b6000602082019050919050565b6000602082019050919050565b600082825260208201905092915050565b600082825260208201905092915050565b600082825260208201905092915050565b600082825260208201905092915050565b600081905092915050565b6000611e3382611e3a565b9050919050565b600073ffffffffffffffffffffffffffffffffffffffff82169050919050565b6000819050919050565b82818337600083830152505050565b60005b83811015611e91578082015181840152602081019050611e76565b83811115611ea0576000848401525b50505050565b6000601f19601f8301169050919050565b611ec081611e28565b8114611ecb57600080fd5b5056fea365627a7a723158209954a0eb0eeb9abbefcdd130a134d6ae3c77d288abbb46fd1edae1e597e505996c6578706572696d656e74616cf564736f6c63430005100040",
  "source": "pragma solidity ^0.5.0;\r\npragma experimental ABIEncoderV2;\r\n\r\ncontract Voter {\r\n\r\n    struct OptionPos {\r\n        uint pos;\r\n        bool exists;\r\n    }\r\n\r\n    struct VoterInfo {\r\n        bool allowed;\r\n        bool voted;\r\n    }\r\n\r\n    struct Voting {\r\n        bool exists;\r\n        bool started;\r\n        bool ended;\r\n        string question;\r\n        address owner;\r\n        uint[] votes;\r\n        string[] options;\r\n        mapping(address => VoterInfo) voterInfos;\r\n        mapping(string => OptionPos) optionsPos;\r\n    }\r\n\r\n    mapping(string => Voting) votings;\r\n\r\n\r\n    function createVoting(string memory votingName, string memory question, string[] memory options, address[] memory voters) public {\r\n        bool alreadyExists = votings[votingName].exists;\r\n        require(!alreadyExists, \"Voting of this name already exists\");\r\n\r\n        Voting memory v;\r\n        votings[votingName] = v;\r\n\r\n        Voting storage voting = votings[votingName];\r\n\r\n        voting.exists = true;\r\n        voting.options = options;\r\n        voting.question = question;\r\n        for (uint i = 0; i < voters.length; i++) {\r\n            VoterInfo memory voterInfo = VoterInfo(true, false);\r\n            voting.voterInfos[voters[i]] = voterInfo;\r\n        }\r\n        for (uint i = 0; i < options.length; i++) {\r\n            OptionPos memory option = OptionPos(i, true);\r\n            voting.optionsPos[options[i]] = option;\r\n        }\r\n        voting.owner = msg.sender;\r\n    }\r\n\r\n\r\n    function startVoting(string memory votingName) public {\r\n        Voting storage voting = votings[votingName];\r\n        require(voting.owner == msg.sender, \"Only the voting owner can start the voting\");\r\n        require(!voting.started, \"Voting has already started\");\r\n        voting.started = true;\r\n    }\r\n\r\n    function vote(string memory votingName, string memory option) public {\r\n        Voting storage voting = votings[votingName];\r\n        require(voting.exists, \"Voting does not exist\");\r\n        require(voting.started, \"Voting has not started yet\");\r\n        require(!voting.ended, \"Voting has already ended\");\r\n        require(voting.voterInfos[msg.sender].allowed, \"Caller not allowed to vote\");\r\n        require(voting.voterInfos[msg.sender].voted, \"Caller has already voted\");\r\n\r\n        OptionPos memory optionPos = voting.optionsPos[option];\r\n        require(optionPos.exists, \"Option does not exist\");\r\n        voting.votes[optionPos.pos] = voting.votes[optionPos.pos] + 1;\r\n        voting.voterInfos[msg.sender].voted = true;\r\n    }\r\n\r\n    function endVoting(string memory votingName) public {\r\n        Voting storage voting = votings[votingName];\r\n        require(voting.exists, \"Voting does not exist\");\r\n        require(!voting.ended, \"Voting has already ended\");\r\n        require(voting.owner == msg.sender, \"Only the voting owner can end the voting\");\r\n        voting.ended = true;\r\n    }\r\n\r\n    function getVotes(string memory votingName) public view returns (uint[] memory) {\r\n        require(votings[votingName].exists, \"Voting does not exist\");\r\n        return votings[votingName].votes;\r\n    }\r\n\r\n    function getVoting(string memory votingName) public view returns (string[] memory){\r\n        require(votings[votingName].exists, \"Voting does not exist\");\r\n        Voting memory voting = votings[votingName];\r\n        string[] memory resultArray = new string[](voting.options.length + 1);\r\n        resultArray[0] = voting.question;\r\n        for (uint i = 1; i < voting.options.length + 1; i++) {\r\n            resultArray[i] = voting.options[i - 1];\r\n        }\r\n        return resultArray;\r\n    }\r\n\r\n}",
  "sourcePath": "C:\\studia\\mgr1\\TP\\eth-voting\\solidity\\contracts\\Voter.sol",
  "compiler": {
    "name": "solc",
    "version": "0.5.16+commit.9c3226ce.Emscripten.clang"
  },
  "schemaVersion": "3.1.0",
  "updatedAt": "2020-05-16T16:19:03.414Z",
  "networkType": "ethereum",
  "devdoc": {
    "methods": {}
  },
  "userdoc": {
    "methods": {}
  }
}