{
  "contractName": "Voter",
  "abi": [
    {
      "constant": false,
      "inputs": [
        {
          "internalType": "string",
          "name": "votingName",
          "type": "string"
        },
        {
          "internalType": "string[]",
          "name": "options",
          "type": "string[]"
        },
        {
          "internalType": "address[]",
          "name": "voters",
          "type": "address[]"
        }
      ],
      "name": "createVoting",
      "outputs": [],
      "payable": false,
      "stateMutability": "nonpayable",
      "type": "function"
    },
    {
      "constant": false,
      "inputs": [
        {
          "internalType": "string",
          "name": "votingName",
          "type": "string"
        }
      ],
      "name": "startVoting",
      "outputs": [],
      "payable": false,
      "stateMutability": "nonpayable",
      "type": "function"
    },
    {
      "constant": false,
      "inputs": [
        {
          "internalType": "string",
          "name": "votingName",
          "type": "string"
        },
        {
          "internalType": "string",
          "name": "option",
          "type": "string"
        }
      ],
      "name": "vote",
      "outputs": [],
      "payable": false,
      "stateMutability": "nonpayable",
      "type": "function"
    },
    {
      "constant": false,
      "inputs": [
        {
          "internalType": "string",
          "name": "votingName",
          "type": "string"
        }
      ],
      "name": "endVoting",
      "outputs": [],
      "payable": false,
      "stateMutability": "nonpayable",
      "type": "function"
    },
    {
      "constant": true,
      "inputs": [
        {
          "internalType": "string",
          "name": "votingName",
          "type": "string"
        }
      ],
      "name": "getVotes",
      "outputs": [
        {
          "internalType": "uint256[]",
          "name": "",
          "type": "uint256[]"
        }
      ],
      "payable": false,
      "stateMutability": "view",
      "type": "function"
    },
    {
      "constant": true,
      "inputs": [
        {
          "internalType": "string",
          "name": "votingName",
          "type": "string"
        }
      ],
      "name": "getOptions",
      "outputs": [
        {
          "internalType": "string[]",
          "name": "",
          "type": "string[]"
        }
      ],
      "payable": false,
      "stateMutability": "view",
      "type": "function"
    }
  ],
  "bytecode": "0x608060405234801561001057600080fd5b50611bb3806100206000396000f3fe608060405234801561001057600080fd5b50600436106100625760003560e01c80633b00a3e31461006757806372d53d6e146100835780637f68d5ba1461009f578063805265e5146100cf578063b754612c146100ff578063e8d5940d1461011b575b600080fd5b610081600480360361007c91908101906111af565b610137565b005b61009d600480360361009891908101906111af565b6102ae565b005b6100b960048036036100b491908101906111af565b6103d4565b6040516100c691906117bc565b60405180910390f35b6100e960048036036100e491908101906111af565b61054c565b6040516100f691906117de565b60405180910390f35b610119600480360361011491908101906111f0565b610633565b005b61013560048036036101309190810190611287565b6109cf565b005b6000808260405161014891906117a5565b908152602001604051809103902090508060000160009054906101000a900460ff166101a9576040517f08c379a00000000000000000000000000000000000000000000000000000000081526004016101a090611820565b60405180910390fd5b8060000160029054906101000a900460ff16156101fb576040517f08c379a00000000000000000000000000000000000000000000000000000000081526004016101f290611920565b60405180910390fd5b3373ffffffffffffffffffffffffffffffffffffffff168160000160039054906101000a900473ffffffffffffffffffffffffffffffffffffffff1673ffffffffffffffffffffffffffffffffffffffff161461028d576040517f08c379a0000000000000000000000000000000000000000000000000000000008152600401610284906118a0565b60405180910390fd5b60018160000160026101000a81548160ff0219169083151502179055505050565b600080826040516102bf91906117a5565b908152602001604051809103902090503373ffffffffffffffffffffffffffffffffffffffff168160000160039054906101000a900473ffffffffffffffffffffffffffffffffffffffff1673ffffffffffffffffffffffffffffffffffffffff1614610361576040517f08c379a0000000000000000000000000000000000000000000000000000000008152600401610358906118e0565b60405180910390fd5b8060000160019054906101000a900460ff16156103b3576040517f08c379a00000000000000000000000000000000000000000000000000000000081526004016103aa906118c0565b60405180910390fd5b60018160000160016101000a81548160ff0219169083151502179055505050565b60606000826040516103e691906117a5565b908152602001604051809103902060000160009054906101000a900460ff16610444576040517f08c379a000000000000000000000000000000000000000000000000000000000815260040161043b90611820565b60405180910390fd5b60008260405161045491906117a5565b9081526020016040518091039020600201805480602002602001604051908101604052809291908181526020016000905b82821015610541578382906000526020600020018054600181600116156101000203166002900480601f01602080910402602001604051908101604052809291908181526020018280546001816001161561010002031660029004801561052d5780601f106105025761010080835404028352916020019161052d565b820191906000526020600020905b81548152906001019060200180831161051057829003601f168201915b505050505081526020019060010190610485565b505050509050919050565b606060008260405161055e91906117a5565b908152602001604051809103902060000160009054906101000a900460ff166105bc576040517f08c379a00000000000000000000000000000000000000000000000000000000081526004016105b390611820565b60405180910390fd5b6000826040516105cc91906117a5565b908152602001604051809103902060010180548060200260200160405190810160405280929190818152602001828054801561062757602002820191906000526020600020905b815481526020019060010190808311610613575b50505050509050919050565b6000808460405161064491906117a5565b908152602001604051809103902060000160009054906101000a900460ff16905080156106a6576040517f08c379a000000000000000000000000000000000000000000000000000000000815260040161069d90611860565b60405180910390fd5b6106ae610d49565b806000866040516106bf91906117a5565b908152602001604051809103902060008201518160000160006101000a81548160ff02191690831515021790555060208201518160000160016101000a81548160ff02191690831515021790555060408201518160000160026101000a81548160ff02191690831515021790555060608201518160000160036101000a81548173ffffffffffffffffffffffffffffffffffffffff021916908373ffffffffffffffffffffffffffffffffffffffff1602179055506080820151816001019080519060200190610790929190610d9b565b5060a08201518160020190805190602001906107ad929190610de8565b50905050600080866040516107c291906117a5565b9081526020016040518091039020905060018160000160006101000a81548160ff02191690831515021790555084816002019080519060200190610807929190610e48565b5060008090505b84518110156108e25761081f610ea8565b60405180604001604052806001151581526020016000151581525090508083600301600088858151811061084f57fe5b602002602001015173ffffffffffffffffffffffffffffffffffffffff1673ffffffffffffffffffffffffffffffffffffffff16815260200190815260200160002060008201518160000160006101000a81548160ff02191690831515021790555060208201518160000160016101000a81548160ff02191690831515021790555090505050808060010191505061080e565b5060008090505b8551811015610983576108fa610ec6565b6040518060400160405280838152602001600115158152509050808360040188848151811061092557fe5b602002602001015160405161093a919061178e565b90815260200160405180910390206000820151816000015560208201518160010160006101000a81548160ff0219169083151502179055509050505080806001019150506108e9565b50338160000160036101000a81548173ffffffffffffffffffffffffffffffffffffffff021916908373ffffffffffffffffffffffffffffffffffffffff160217905550505050505050565b600080836040516109e091906117a5565b908152602001604051809103902090508060000160009054906101000a900460ff16610a41576040517f08c379a0000000000000000000000000000000000000000000000000000000008152600401610a3890611820565b60405180910390fd5b8060000160019054906101000a900460ff16610a92576040517f08c379a0000000000000000000000000000000000000000000000000000000008152600401610a8990611840565b60405180910390fd5b8060000160029054906101000a900460ff1615610ae4576040517f08c379a0000000000000000000000000000000000000000000000000000000008152600401610adb90611920565b60405180910390fd5b8060030160003373ffffffffffffffffffffffffffffffffffffffff1673ffffffffffffffffffffffffffffffffffffffff16815260200190815260200160002060000160009054906101000a900460ff16610b75576040517f08c379a0000000000000000000000000000000000000000000000000000000008152600401610b6c90611880565b60405180910390fd5b8060030160003373ffffffffffffffffffffffffffffffffffffffff1673ffffffffffffffffffffffffffffffffffffffff16815260200190815260200160002060000160019054906101000a900460ff16610c06576040517f08c379a0000000000000000000000000000000000000000000000000000000008152600401610bfd90611800565b60405180910390fd5b610c0e610ec6565b8160040183604051610c2091906117a5565b9081526020016040518091039020604051806040016040529081600082015481526020016001820160009054906101000a900460ff16151515158152505090508060200151610ca4576040517f08c379a0000000000000000000000000000000000000000000000000000000008152600401610c9b90611900565b60405180910390fd5b600182600101826000015181548110610cb957fe5b90600052602060002001540182600101826000015181548110610cd857fe5b906000526020600020018190555060018260030160003373ffffffffffffffffffffffffffffffffffffffff1673ffffffffffffffffffffffffffffffffffffffff16815260200190815260200160002060000160016101000a81548160ff02191690831515021790555050505050565b6040518060c00160405280600015158152602001600015158152602001600015158152602001600073ffffffffffffffffffffffffffffffffffffffff16815260200160608152602001606081525090565b828054828255906000526020600020908101928215610dd7579160200282015b82811115610dd6578251825591602001919060010190610dbb565b5b509050610de49190610ee2565b5090565b828054828255906000526020600020908101928215610e37579160200282015b82811115610e36578251829080519060200190610e26929190610f07565b5091602001919060010190610e08565b5b509050610e449190610f87565b5090565b828054828255906000526020600020908101928215610e97579160200282015b82811115610e96578251829080519060200190610e86929190610f07565b5091602001919060010190610e68565b5b509050610ea49190610f87565b5090565b60405180604001604052806000151581526020016000151581525090565b6040518060400160405280600081526020016000151581525090565b610f0491905b80821115610f00576000816000905550600101610ee8565b5090565b90565b828054600181600116156101000203166002900490600052602060002090601f016020900481019282601f10610f4857805160ff1916838001178555610f76565b82800160010185558215610f76579182015b82811115610f75578251825591602001919060010190610f5a565b5b509050610f839190610ee2565b5090565b610fb091905b80821115610fac5760008181610fa39190610fb3565b50600101610f8d565b5090565b90565b50805460018160011615610100020316600290046000825580601f10610fd95750610ff8565b601f016020900490600052602060002090810190610ff79190610ee2565b5b50565b60008135905061100a81611b59565b92915050565b600082601f83011261102157600080fd5b813561103461102f8261196d565b611940565b9150818183526020840193506020810190508385602084028201111561105957600080fd5b60005b83811015611089578161106f8882610ffb565b84526020840193506020830192505060018101905061105c565b5050505092915050565b600082601f8301126110a457600080fd5b81356110b76110b282611995565b611940565b9150818183526020840193506020810190508360005b838110156110fd57813586016110e38882611107565b8452602084019350602083019250506001810190506110cd565b5050505092915050565b600082601f83011261111857600080fd5b813561112b611126826119bd565b611940565b9150808252602083016020830185838301111561114757600080fd5b611152838284611b06565b50505092915050565b600082601f83011261116c57600080fd5b813561117f61117a826119e9565b611940565b9150808252602083016020830185838301111561119b57600080fd5b6111a6838284611b06565b50505092915050565b6000602082840312156111c157600080fd5b600082013567ffffffffffffffff8111156111db57600080fd5b6111e78482850161115b565b91505092915050565b60008060006060848603121561120557600080fd5b600084013567ffffffffffffffff81111561121f57600080fd5b61122b8682870161115b565b935050602084013567ffffffffffffffff81111561124857600080fd5b61125486828701611093565b925050604084013567ffffffffffffffff81111561127157600080fd5b61127d86828701611010565b9150509250925092565b6000806040838503121561129a57600080fd5b600083013567ffffffffffffffff8111156112b457600080fd5b6112c08582860161115b565b925050602083013567ffffffffffffffff8111156112dd57600080fd5b6112e98582860161115b565b9150509250929050565b60006112ff8383611423565b905092915050565b6000611313838361177f565b60208301905092915050565b600061132a82611a35565b6113348185611a7b565b93508360208202850161134685611a15565b8060005b85811015611382578484038952815161136385826112f3565b945061136e83611a61565b925060208a0199505060018101905061134a565b50829750879550505050505092915050565b600061139f82611a40565b6113a98185611a8c565b93506113b483611a25565b8060005b838110156113e55781516113cc8882611307565b97506113d783611a6e565b9250506001810190506113b8565b5085935050505092915050565b60006113fd82611a56565b6114078185611abf565b9350611417818560208601611b15565b80840191505092915050565b600061142e82611a4b565b6114388185611a9d565b9350611448818560208601611b15565b61145181611b48565b840191505092915050565b600061146782611a4b565b6114718185611abf565b9350611481818560208601611b15565b80840191505092915050565b600061149a601883611aae565b91507f43616c6c65722068617320616c726561647920766f74656400000000000000006000830152602082019050919050565b60006114da601583611aae565b91507f566f74696e6720646f6573206e6f7420657869737400000000000000000000006000830152602082019050919050565b600061151a601a83611aae565b91507f566f74696e6720686173206e6f742073746172746564207965740000000000006000830152602082019050919050565b600061155a602283611aae565b91507f566f74696e67206f662074686973206e616d6520616c7265616479206578697360008301527f74730000000000000000000000000000000000000000000000000000000000006020830152604082019050919050565b60006115c0601a83611aae565b91507f43616c6c6572206e6f7420616c6c6f77656420746f20766f74650000000000006000830152602082019050919050565b6000611600602883611aae565b91507f4f6e6c792074686520766f74696e67206f776e65722063616e20656e6420746860008301527f6520766f74696e670000000000000000000000000000000000000000000000006020830152604082019050919050565b6000611666601a83611aae565b91507f566f74696e672068617320616c726561647920737461727465640000000000006000830152602082019050919050565b60006116a6602a83611aae565b91507f4f6e6c792074686520766f74696e67206f776e65722063616e2073746172742060008301527f74686520766f74696e67000000000000000000000000000000000000000000006020830152604082019050919050565b600061170c601583611aae565b91507f4f7074696f6e20646f6573206e6f7420657869737400000000000000000000006000830152602082019050919050565b600061174c601883611aae565b91507f566f74696e672068617320616c726561647920656e64656400000000000000006000830152602082019050919050565b61178881611afc565b82525050565b600061179a828461145c565b915081905092915050565b60006117b182846113f2565b915081905092915050565b600060208201905081810360008301526117d6818461131f565b905092915050565b600060208201905081810360008301526117f88184611394565b905092915050565b600060208201905081810360008301526118198161148d565b9050919050565b60006020820190508181036000830152611839816114cd565b9050919050565b600060208201905081810360008301526118598161150d565b9050919050565b600060208201905081810360008301526118798161154d565b9050919050565b60006020820190508181036000830152611899816115b3565b9050919050565b600060208201905081810360008301526118b9816115f3565b9050919050565b600060208201905081810360008301526118d981611659565b9050919050565b600060208201905081810360008301526118f981611699565b9050919050565b60006020820190508181036000830152611919816116ff565b9050919050565b600060208201905081810360008301526119398161173f565b9050919050565b6000604051905081810181811067ffffffffffffffff8211171561196357600080fd5b8060405250919050565b600067ffffffffffffffff82111561198457600080fd5b602082029050602081019050919050565b600067ffffffffffffffff8211156119ac57600080fd5b602082029050602081019050919050565b600067ffffffffffffffff8211156119d457600080fd5b601f19601f8301169050602081019050919050565b600067ffffffffffffffff821115611a0057600080fd5b601f19601f8301169050602081019050919050565b6000819050602082019050919050565b6000819050602082019050919050565b600081519050919050565b600081519050919050565b600081519050919050565b600081519050919050565b6000602082019050919050565b6000602082019050919050565b600082825260208201905092915050565b600082825260208201905092915050565b600082825260208201905092915050565b600082825260208201905092915050565b600081905092915050565b6000611ad582611adc565b9050919050565b600073ffffffffffffffffffffffffffffffffffffffff82169050919050565b6000819050919050565b82818337600083830152505050565b60005b83811015611b33578082015181840152602081019050611b18565b83811115611b42576000848401525b50505050565b6000601f19601f8301169050919050565b611b6281611aca565b8114611b6d57600080fd5b5056fea365627a7a7231582013d981cf658078fbeacfefb086a50ce1292885b52e4e2e3d5c7b50686b94fa506c6578706572696d656e74616cf564736f6c63430005100040",
  "source": "pragma solidity ^0.5.0;\r\npragma experimental ABIEncoderV2;\r\n\r\ncontract Voter {\r\n\r\n    struct OptionPos {\r\n        uint pos;\r\n        bool exists;\r\n    }\r\n\r\n    struct VoterInfo {\r\n        bool allowed;\r\n        bool voted;\r\n    }\r\n\r\n    struct Voting {\r\n        bool exists;\r\n        bool started;\r\n        bool ended;\r\n        address owner;\r\n        uint[] votes;\r\n        string[] options;\r\n        mapping(address => VoterInfo) voterInfos;\r\n        mapping(string => OptionPos) optionsPos;\r\n    }\r\n\r\n    mapping(string => Voting) votings;\r\n\r\n\r\n    function createVoting(string memory votingName, string[] memory options, address[] memory voters) public {\r\n        bool alreadyExists = votings[votingName].exists;\r\n        require(!alreadyExists, \"Voting of this name already exists\");\r\n\r\n        Voting memory v;\r\n        votings[votingName] = v;\r\n\r\n        Voting storage voting = votings[votingName];\r\n\r\n        voting.exists = true;\r\n        voting.options = options;\r\n        for (uint i = 0; i < voters.length; i++) {\r\n            VoterInfo memory voterInfo = VoterInfo(true, false);\r\n            voting.voterInfos[voters[i]] = voterInfo;\r\n        }\r\n        for (uint i = 0; i < options.length; i++) {\r\n            OptionPos memory option = OptionPos(i, true);\r\n            voting.optionsPos[options[i]] = option;\r\n        }\r\n        voting.owner = msg.sender;\r\n    }\r\n\r\n\r\n    function startVoting(string memory votingName) public {\r\n        Voting storage voting = votings[votingName];\r\n        require(voting.owner == msg.sender, \"Only the voting owner can start the voting\");\r\n        require(!voting.started, \"Voting has already started\");\r\n        voting.started = true;\r\n    }\r\n\r\n    function vote(string memory votingName, string memory option) public {\r\n        Voting storage voting = votings[votingName];\r\n        require(voting.exists, \"Voting does not exist\");\r\n        require(voting.started, \"Voting has not started yet\");\r\n        require(!voting.ended, \"Voting has already ended\");\r\n        require(voting.voterInfos[msg.sender].allowed, \"Caller not allowed to vote\");\r\n        require(voting.voterInfos[msg.sender].voted, \"Caller has already voted\");\r\n\r\n        OptionPos memory optionPos = voting.optionsPos[option];\r\n        require(optionPos.exists, \"Option does not exist\");\r\n        voting.votes[optionPos.pos] = voting.votes[optionPos.pos] + 1;\r\n        voting.voterInfos[msg.sender].voted = true;\r\n    }\r\n\r\n    function endVoting(string memory votingName) public {\r\n        Voting storage voting = votings[votingName];\r\n        require(voting.exists, \"Voting does not exist\");\r\n        require(!voting.ended, \"Voting has already ended\");\r\n        require(voting.owner == msg.sender, \"Only the voting owner can end the voting\");\r\n        voting.ended = true;\r\n    }\r\n\r\n    function getVotes(string memory votingName) public view returns (uint[] memory) {\r\n        require(votings[votingName].exists, \"Voting does not exist\");\r\n        return votings[votingName].votes;\r\n    }\r\n\r\n    function getOptions(string memory votingName) public view returns (string[] memory){\r\n        require(votings[votingName].exists, \"Voting does not exist\");\r\n        return votings[votingName].options;\r\n    }\r\n}",
  "sourcePath": "C:\\studia\\mgr1\\TP\\eth-voting\\solidity\\contracts\\Voter.sol",
  "compiler": {
    "name": "solc",
    "version": "0.5.16+commit.9c3226ce.Emscripten.clang"
  },
  "schemaVersion": "3.1.0",
  "updatedAt": "2020-05-16T13:31:58.567Z",
  "networkType": "ethereum",
  "devdoc": {
    "methods": {}
  },
  "userdoc": {
    "methods": {}
  }
}